:060000000A128A11FC2F18
:100F5E00831688010130F5000030F600F301F4012C
:100F6E00E12F75088312031388000310750DF50029
:100F7E00760DF6001A30F2005E30F1006E30F000A1
:100F8E00F00BC72FF10BC72FF20BC72F00007608FF
:100F9E00803AFF0080307F02031DD72F813075020B
:100FAE00031CE12F0130F3000030F4008030F50017
:100FBE000030F600730874040319B82F75088312F5
:100FCE0003138800760D760CF600750CF5001A30BA
:100FDE00F2005E30F1006E30F000F00BF42FF10BEA
:100FEE00F42FF20BF42F0000B52F83010A128A1191
:020FFE00AF2F13
:00000001FF
