:060000000A128A11FC2F18
:100DB800813083129F00803083169F000800FF3027
:100DC8008316850088010A128A11DC260800F401BE
:100DD800F501701CF52E7208F4070318F50A73085C
:100DE800F50701300310F20DF30DFF3E031DF62E3B
:100DF80001300310F10CF00CFF3E031DFD2E7008AE
:100E08007104031DED2E7508F1007408F000080048
:100E1800F600831203131F08C7399F007608F200F3
:100E280002300310F20DFF3E031D152F0310720D43
:100E38001F049F000D30F300FB30F200F20B222F4D
:100E4800F30B222F272F831203131F151F192A2F85
:100E58001E08F50083161E08F4007508F1007408D2
:100E6800F00008008030FC000030FD000A128A11F2
:100E7800E3260A128A1102300A128A110C270A1272
:100E88008A117108FB007008FA007B087D02031DB7
:100E98004F2F7A087C02031C532F0130632F7D08E3
:100EA800F8007C08F7000310F70DF80D7B087802AE
:100EB800031D602F7A087702031C652F0330831205
:100EC800ED2F7D08F1007C08F0000330F2000030BF
:100ED800F3000A128A11EB260A128A117B087102A2
:100EE800031D782F7A087002031C7C2F0730EB2F24
:100EF8007D08F8007C08F7000310F70DF80D0310C3
:100F0800F70DF80D7B087802031D8C2F7A087702FD
:100F1800031C902F0F30EB2F7D08F1007C08F000A8
:100F28000530F2000030F3000A128A11EB260A128B
:100F38008A117B087102031DA32F7A087002031C13
:100F4800A72F1F30EB2F7D08F1007C08F00006303A
:100F5800F2000030F3000A128A11EB260A128A11F5
:100F68007B087102031DBA2F7A087002031CBE2F7A
:100F78003F30EB2F7D08F1007C08F0000730F200CD
:100F88000030F3000A128A11EB260A128A117B0834
:100F98007102031DD12F7A087002031CD52F7F30F0
:100FA800EB2F7D08F8007C08F7000310F70DF80D0B
:100FB8000310F70DF80D0310F70DF80D7B087802F4
:100FC800031DE82F7A087702031CEE2FFF308312E7
:100FD800031388000330F9008A30F8005530F70011
:100FE800F70BF42FF80BF42FF90BF42FFB2F3F2FEF
:080FF80083010A128A11362F51
:00000001FF
