:060000000A128A11FC2F18
:100F4C00113083168600890183120618BB2F890184
:100F5C000630F2001330F100AD30F000F00BB42F7E
:100F6C00F10BB42FF20BB42FBB2F013083120313F0
:100F7C0089008618CF2F89010630F2001330F1005A
:100F8C00AD30F000F00BC82FF10BC82FF20BC82FAF
:100F9C00CF2F01308312031389000619E32F890127
:100FAC000630F2001330F100AD30F000F00BDC2F06
:100FBC00F10BDC2FF20BDC2FE32F01308312031328
:100FCC0089008619F72F89010630F2001330F100E1
:100FDC00AD30F000F00BF02FF10BF02FF20BF02FE7
:100FEC00F72F0130831203138900AA2F83010A12F1
:040FFC008A11A62F81
:00000001FF
