:060000000A128A11F02F24
:100F44003F3406345B344F3466346D347D340734B7
:100F54007F346F347E088A007F088200AC270A122F
:100F64008A118000840A04087D0603190034FF0AEC
:100F74000319FE0AB02FF301F401831688018501D9
:100F8400203083128500200888007308203E8400E6
:100F9400831300088312031388001A30F2005E30B2
:100FA400F1006E30F000F00BD52FF10BD52FF20BC2
:100FB400D52F00000130F3070318F40A0030F407BA
:100FC4007408803AFF0080307F02031DEB2F0A3043
:100FD4007302031CC72FF301F401C72F83132A30B4
:100FE400FD000730FE00A230FF00203084000A120A
:0C0FF4008A11B02783010A128A11BD2F58
:00000001FF
