:060000000A128A11F02F24
:100ED4003F3406345B344F3466346D347D34073428
:100EE4007F346F347E088A007F08820074270A12D8
:100EF4008A118000840A04087D0603190034FF0A5D
:100F04000319FE0A782F0F308316860088018501A5
:100F1400743084002030F0000408F1000A30F2003C
:100F24007008840083130008F300F00A7108840039
:100F340073088000F10AF20B922F831688010F3098
:100F440086008501203083128500EF308600061864
:100F5400AD2F013088008618B12F023088000619A1
:100F6400B52F043088008619B92F08308800DF3087
:100F740086000618BF2F103088008618C32F203033
:100F840088000619C72F403088008619CB2F80307F
:100F94008800BF3086000618D12F113088008618CB
:100FA400D52F223088000619D92F4430880086199D
:100FB400DD2F883088007F3086000618E32F8130CB
:100FC40088008618E72F423088000619EB2F24305A
:100FD400880086199F2F183088009F2F83132A308A
:100FE400FD000730FE006A30FF00203084000A1242
:0C0FF4008A11782783010A128A11852FC8
:00000001FF
